:020000040800F2
:1000000038070020CD01000849070008A7050008AF
:1000100045070008E10200088D0900080000000003
:100020000000000000000000000000006D07000854
:10003000E5020008000000004B070008A7080008C0
:10004000E7010008E7010008E7010008E7010008F0
:10005000E7010008E7010008E7010008E7010008E0
:10006000E7010008E7010008E7010008E7010008D0
:10007000E7010008E7010008E7010008E7010008C0
:10008000E7010008E7010008E7010008E7010008B0
:10009000E7010008E7010008E7010008E7010008A0
:1000A000E7010008E7010008E7010008E701000890
:1000B000E7010008E7010008E7010008E701000880
:1000C000E7010008E7010008E7010008E701000870
:1000D000E701000809090008E7010008E701000836
:1000E000E7010008E7010008E7010008E701000850
:1000F000E7010008E7010008E7010008E701000840
:10010000E7010008E7010008E7010008E70100082F
:10011000E7010008E7010008E7010008E70100081F
:10012000E7010008E7010008E7010008E70100080F
:1001300000F002F800F03AF80AA090E8000C8244BF
:100140008344AAF10107DA4501D100F02FF8AFF29C
:10015000090EBAE80F0013F0010F18BFFB1A43F0A5
:10016000010318477C0C00009C0C0000103A24BFCF
:1001700078C878C1FAD8520724BF30C830C144BF0C
:1001800004680C607047000000230024002500264E
:10019000103A28BF78C1FBD8520728BF30C148BFEA
:1001A0000B6070471FB51FBD10B510BD00F065F89E
:1001B0001146FFF7F7FF00F049FC00F083F803B4A5
:1001C000FFF7F2FF03BC00F0E3FB000009488047A3
:1001D00009480047FEE7FEE7FEE7FEE7FEE7FEE729
:1001E000FEE7FEE7FEE7FEE704480549054A064B41
:1001F00070470000A90800083101000838010020FC
:10020000380700203803002038030020704710B55D
:10021000203AC0F00B80B1E81850203AA0E81850FE
:10022000B1E81850A0E81850BFF4F5AF5FEA027CBF
:1002300024BFB1E81850A0E8185044BF18C918C02E
:10024000BDE810405FEA827C24BF51F8043B40F8CF
:10025000043B08BF7047D20728BF31F8023B48BFB4
:1002600011F8012B28BF20F8023B48BF00F8012BF2
:1002700070477047704770477047754600F02CF81C
:10028000AE4605006946534620F00700854618B083
:1002900020B5FFF7A9FFBDE820404FF000064FF062
:1002A00000074FF000084FF0000B21F00701AC46AB
:1002B000ACE8C009ACE8C009ACE8C009ACE8C009CA
:1002C0008D46704710B50446AFF300802046BDE868
:1002D0001040FFF774BF000000487047D4000020B2
:1002E00000BFFEE770472DE9F74F82B00F469046FA
:1002F00000259FE039467A1CD7B2029800F0ACFA8C
:1003000000268EE005EB450000F0FF0908EB090030
:10031000845D04F0C00A04F0300B04F00C0001907E
:1003200004F003000090BAF1000F17D0BAF1400FAB
:100330000FD0BAF1800F07D0BAF1C00F13D1FF214F
:10034000012000F023FC0EE0F021012000F01EFC53
:1003500009E00F21012000F019FC04E00021012038
:1003600000F014FC00BF00BFBBF1000F17D0BBF1C1
:10037000010F0FD0BBF1020F07D0BBF1030F13D158
:10038000FF21012000F002FC0EE0F021012000F02E
:10039000FDFB09E00F21012000F0F8FB04E0002143
:1003A000012000F0F3FB00BF00BF0198A0B10428BA
:1003B0000DD0082806D00C2813D1FF21012000F011
:1003C000E5FB0EE0F021012000F0E0FB09E00F2149
:1003D000012000F0DBFB04E00021012000F0D6FB4F
:1003E00000BF00BF0098A0B101280DD0022806D0A0
:1003F000032813D1FF21012000F0C8FB0EE0F021FB
:10040000012000F0C3FB09E00F21012000F0BEFB3A
:1004100004E00021012000F0B9FB00BF00BF701C08
:10042000C6B2032EFFF66EAF8821002000F0AEFBAF
:10043000681CC5B2182DFFF65DAF05B0BDE8F08FA2
:1004400008B50121042000F081F9FF20ADF800007B
:1004500010208DF8030003208DF8020069460A4839
:1004600000F016F80121102000F070F9FF20ADF81F
:10047000000010208DF8030003208DF8020069466B
:10048000024800F005F808BD0008014000100140D6
:100490002DE9F0410246002500260020002300241B
:1004A000002791F803C00CF00F0591F803C00CF081
:1004B000100CBCF1000F03D091F802C04CEA050506
:1004C00091F800C0BCF1000F31D0146800202BE07F
:1004D0004FF0010C0CFA00F3B1F800C00CEA03066F
:1004E0009E4220D183004FF00F0C0CFA03F7BC435F
:1004F00005FA03FC4CEA040491F803C0BCF1280F90
:1005000006D14FF0010C0CFA00FCC2F814C00AE04E
:1005100091F803C0BCF1480F05D14FF0010C0CFA63
:1005200000FCC2F810C0401C0828D1D31460B1F8F8
:1005300000C0BCF1FF0F34DD546800202EE000F154
:10054000080C4FF0010808FA0CF3B1F800C00CEAEF
:1005500003069E4221D183004FF00F0C0CFA03F7E3
:10056000BC4305FA03FC4CEA040491F803C0BCF157
:10057000280F05D100F1080C08FA0CF8C2F8148015
:1005800091F803C0BCF1480F07D100F1080C4FF0FF
:10059000010808FA0CF8C2F81080401C0828CED3D5
:1005A0005460BDE8F08100BFFEE72DE9F041002175
:1005B000084600F051F900260027002427E0002516
:1005C00021E0204604EBD0714910A4EB410161B950
:1005D0003146012000F0DAFA3146012000F0D6FA67
:1005E0003146012000F0D2FA0BE03946012000F03C
:1005F000CDFA3946012000F0C9FA3946012000F051
:10060000C5FA681CC5B2282DDBDB601CC4B2802C87
:10061000D5DBBDE8F081000010B501204849086035
:100620001020091F08600A2000F0D4F91020444966
:100630000860C82000F0CEF910204149091F086069
:10064000C82000F0C7F9E221002000F09FFA142032
:1006500000F0C0F92B21002000F098FA252100209D
:1006600000F094FAA221002000F090FAEB21002083
:1006700000F08CFAA421002000F088FAA6210020C6
:1006800000F084FA8421002000F080FA812100200B
:1006900000F07CFA3C21002000F078FAC421002010
:1006A00000F074FA8921002000F070FAD1210020B6
:1006B00000F06CFAD521002000F068FAAD2100208E
:1006C00000F064FAC821002000F060FA1021002038
:1006D00000F05CFAC421002000F058FAA1210020AB
:1006E00000F054FAF421002000F050FA00210846EE
:1006F00000F04CFAF621002000F048FA4F210020CB
:1007000000F044FAF521002000F040FA00210846EC
:1007100000F03CFAF721002000F038FA7F21002099
:1007200000F034FAF821002000F030FA892100208E
:1007300000F02CFAAD21002000F028FA10BD0000D6
:100740001408014000BFFEE77047704729B1064A10
:1007500092690243044B9A6104E0034A926982431E
:10076000014B9A617047000000100240704710B5BD
:1007700000F002F810BD00000CB5002001900090C0
:100780003348006840F480303149086000BF304889
:10079000006800F4003000900198401C019000981F
:1007A00018B90198B0F5A06FF1D12948006800F49C
:1007B000003010B10120009001E00020009000986E
:1007C000012843D12348006840F010002149086007
:1007D0000846006820F0030008600846006840F002
:1007E000020008601A484068194948600846406895
:1007F00048600846406840F48060486008464068A9
:1008000020F47C1048600846406840F4E8104860D6
:100810000846006840F08070086000BF0C4800681F
:1008200000F000700028F9D00948406820F003006B
:10083000074948600846406840F00200486000BF31
:100840000348406800F00C000828F9D10CBD0000F6
:1008500000100240002002402DE9F04704460D46FA
:100860008921002000F092F904F00F06C4F3021071
:1008700040F0100705F00F0040F06008702040EADB
:1008800015193146002000F081F93946002000F0AA
:100890007DF94146002000F079F94946002000F03A
:1008A00075F9BDE8F087704710B51348006840F04F
:1008B00001001149086008464068104908400E4987
:1008C0004860084600680E4908400B490860084621
:1008D000006820F4802008600846406820F4FE008C
:1008E00048604FF41F008860FFF741FF4FF0006041
:1008F0000449086010BD0000001002400000FFF82D
:10090000FFFFF6FE08ED00E01D49098801F0200117
:1009100011B31B49091D0988C8B21A49098801F495
:100920000041C9B91749098801F4804161B10A2819
:1009300003D00021134A118020E01249098841F4B4
:100940000041104A118019E00D2806D10D4909888F
:1009500041F480410B4A118010E00A490988C1F333
:100960000D01094A505407490988491C054A11805C
:1009700011460988C72901DD002111807047000058
:1009800000380140080000200C00002000BFFEE7F6
:1009900000BF70474FF0E021096921F004014FF0DA
:1009A000E0221161C21700EB5272C2F3C702074B7B
:1009B0001A701946097801EB4102C2EBC1114FF6DA
:1009C000FF7202EAC101024A118070470000002054
:1009D0000200002001460D4A12884A434FF0E023EE
:1009E0005A6100229A6101221A6100BF4FF0E02291
:1009F000106900F001021AB100F48032002AF5D02B
:100A000000224FF0E0231A619A6170470200002033
:100A100001460D4A12784A434FF0E0235A61002202
:100A20009A6101221A6100BF4FF0E022106900F0C4
:100A300001021AB100F48032002AF5D000224FF0F2
:100A4000E0231A619A61704700000020FEB0482040
:100A5000FFF7A0FFFFF7F4FC0120484908600820D9
:100A60000860042008600A20FFF7B4FFFFF7D4FDF8
:100A7000482243496CA8FFF7CAFB48224049483145
:100A80005AA8FFF7C4FB48223E4948A8FFF7BFFB1E
:100A900048223B49903136A8FFF7B9FB4822384934
:100AA000D83124A8FFF7B3FB4822374912A8FFF733
:100AB000AEFB4822344948316846FFF7A8FBFFF7F0
:100AC00074FD59E08821002000F060F80220FFF753
:100AD00081FF8921002000F059F83C211620FFF702
:100AE000BBFEFF21012000F051F8FF21012000F0A2
:100AF0004DF8FF21012000F049F8FF21012000F00E
:100B000045F8FF21012000F041F8FF21012000F00D
:100B10003DF8FF21012000F039F8FF21012000F00D
:100B200035F8FF21012000F031F8FF21012000F00D
:100B30002DF8FF21012000F029F8FF21012000F00D
:100B400025F88821002000F021F88921002000F0FC
:100B50001DF88921002000F019F8FF21012000F084
:100B600015F88821002000F011F86A461421084683
:100B7000FFF7B9FB00BFFEE7A4E700001008014043
:100B8000E40B0008940D0008040D000870B504463D
:100B90000D460820114908600120091D086014B1A4
:100BA0000220091F08601CB902200C49091D0860B9
:100BB00008200A49091D08600F20FFF729FF08488F
:100BC000C5600F20FFF724FF0820044908600120BA
:100BD00008600F20FFF71CFF70BD000010080140E7
:100BE0000010014000000002010001010040C1FCB2
:100BF0002063FE300C001870000380000C10001001
:100C000010001010001010001010001010001FFF36
:100C1000FF1FFFFE10100010100010100030100019
:100C20003030001030000010000000000000000014
:100C30000000000000001800001800001800001854
:100C4000000018000018000018000018000118002B
:100C500001188001188001998000FF00007E0000CB
:100C60003C00001800000000000000000000000030
:100C7000000000000000000000100000100000381C
:100C800000403000606000E0C000318000160000CD
:100C9000180022600077FFFCC7FFFE8200070220D9
:100CA00006027804027E040223800020E000203047
:100CB00000201000200800000400000000000000D8
:100CC00000400200400600E00E00C0060180020362
:100CD000000206000218000260004380007FFFFE51
:100CE000FFFFFF03E000027000021C00020E000282
:100CF00003000201800200C0020040020020000048
:100D000010000000000000000800060E00038C0028
:100D100001CC00008C00000C000C0C00070C000340
:100D20008C00010C00000C08000C1C7FFFFE00185A
:100D30000000180000370000618000C0E0018070F2
:100D40000600381800186000100000008004014000
:100D500006002007001007800807C00407E002070C
:100D6000F001073800877C0047FE0027FFFFFFFFE8
:100D7000FFFFFFFFE8007FE4003CE2001CE1000F02
:100D8000E08007E04003E02001E01000E0080060A0
:100D900004802003FFFFFFFFFFFFFFFFFFFFFFFFB8
:100DA000FFFFFFFFFFFFFFFFFFFFFFFFFFFFFFFF53
:100DB000FFFFFFFFFFFFFFFFFFFFFFFFFFFFFFFF43
:100DC000FFFFFFFFFFFFFFFFFFFFFFFFFFFFFFFF33
:100DD000FFFFFFFFFFFFFFFFFFFFFFFF000000001F
:100DE000000E0008000000200C0000006C0100084C
:100DF0000C0E00080C0000202C07000088010008E1
:0C0E0000000000000000000000000000E6
:0400000508000131BD
:00000001FF
